{
  "_format": "hh-sol-artifact-1",
  "contractName": "BetNFT",
  "sourceName": "contracts/BetNFT.sol",
  "abi": [
    {
      "inputs": [],
      "stateMutability": "nonpayable",
      "type": "constructor"
    },
    {
      "inputs": [],
      "name": "ERC721EnumerableForbiddenBatchMint",
      "type": "error"
    },
    {
      "inputs": [
        {
          "internalType": "address",
          "name": "sender",
          "type": "address"
        },
        {
          "internalType": "uint256",
          "name": "tokenId",
          "type": "uint256"
        },
        {
          "internalType": "address",
          "name": "owner",
          "type": "address"
        }
      ],
      "name": "ERC721IncorrectOwner",
      "type": "error"
    },
    {
      "inputs": [
        {
          "internalType": "address",
          "name": "operator",
          "type": "address"
        },
        {
          "internalType": "uint256",
          "name": "tokenId",
          "type": "uint256"
        }
      ],
      "name": "ERC721InsufficientApproval",
      "type": "error"
    },
    {
      "inputs": [
        {
          "internalType": "address",
          "name": "approver",
          "type": "address"
        }
      ],
      "name": "ERC721InvalidApprover",
      "type": "error"
    },
    {
      "inputs": [
        {
          "internalType": "address",
          "name": "operator",
          "type": "address"
        }
      ],
      "name": "ERC721InvalidOperator",
      "type": "error"
    },
    {
      "inputs": [
        {
          "internalType": "address",
          "name": "owner",
          "type": "address"
        }
      ],
      "name": "ERC721InvalidOwner",
      "type": "error"
    },
    {
      "inputs": [
        {
          "internalType": "address",
          "name": "receiver",
          "type": "address"
        }
      ],
      "name": "ERC721InvalidReceiver",
      "type": "error"
    },
    {
      "inputs": [
        {
          "internalType": "address",
          "name": "sender",
          "type": "address"
        }
      ],
      "name": "ERC721InvalidSender",
      "type": "error"
    },
    {
      "inputs": [
        {
          "internalType": "uint256",
          "name": "tokenId",
          "type": "uint256"
        }
      ],
      "name": "ERC721NonexistentToken",
      "type": "error"
    },
    {
      "inputs": [
        {
          "internalType": "address",
          "name": "owner",
          "type": "address"
        },
        {
          "internalType": "uint256",
          "name": "index",
          "type": "uint256"
        }
      ],
      "name": "ERC721OutOfBoundsIndex",
      "type": "error"
    },
    {
      "inputs": [
        {
          "internalType": "address",
          "name": "owner",
          "type": "address"
        }
      ],
      "name": "OwnableInvalidOwner",
      "type": "error"
    },
    {
      "inputs": [
        {
          "internalType": "address",
          "name": "account",
          "type": "address"
        }
      ],
      "name": "OwnableUnauthorizedAccount",
      "type": "error"
    },
    {
      "anonymous": false,
      "inputs": [
        {
          "indexed": true,
          "internalType": "address",
          "name": "owner",
          "type": "address"
        },
        {
          "indexed": true,
          "internalType": "address",
          "name": "approved",
          "type": "address"
        },
        {
          "indexed": true,
          "internalType": "uint256",
          "name": "tokenId",
          "type": "uint256"
        }
      ],
      "name": "Approval",
      "type": "event"
    },
    {
      "anonymous": false,
      "inputs": [
        {
          "indexed": true,
          "internalType": "address",
          "name": "owner",
          "type": "address"
        },
        {
          "indexed": true,
          "internalType": "address",
          "name": "operator",
          "type": "address"
        },
        {
          "indexed": false,
          "internalType": "bool",
          "name": "approved",
          "type": "bool"
        }
      ],
      "name": "ApprovalForAll",
      "type": "event"
    },
    {
      "anonymous": false,
      "inputs": [
        {
          "indexed": true,
          "internalType": "address",
          "name": "previousOwner",
          "type": "address"
        },
        {
          "indexed": true,
          "internalType": "address",
          "name": "newOwner",
          "type": "address"
        }
      ],
      "name": "OwnershipTransferred",
      "type": "event"
    },
    {
      "anonymous": false,
      "inputs": [
        {
          "indexed": true,
          "internalType": "address",
          "name": "from",
          "type": "address"
        },
        {
          "indexed": true,
          "internalType": "address",
          "name": "to",
          "type": "address"
        },
        {
          "indexed": true,
          "internalType": "uint256",
          "name": "tokenId",
          "type": "uint256"
        }
      ],
      "name": "Transfer",
      "type": "event"
    },
    {
      "inputs": [
        {
          "internalType": "address",
          "name": "to",
          "type": "address"
        },
        {
          "internalType": "uint256",
          "name": "tokenId",
          "type": "uint256"
        }
      ],
      "name": "approve",
      "outputs": [],
      "stateMutability": "nonpayable",
      "type": "function"
    },
    {
      "inputs": [
        {
          "internalType": "address",
          "name": "owner",
          "type": "address"
        }
      ],
      "name": "balanceOf",
      "outputs": [
        {
          "internalType": "uint256",
          "name": "",
          "type": "uint256"
        }
      ],
      "stateMutability": "view",
      "type": "function"
    },
    {
      "inputs": [
        {
          "internalType": "uint256",
          "name": "",
          "type": "uint256"
        }
      ],
      "name": "betInfos",
      "outputs": [
        {
          "internalType": "uint256",
          "name": "projectId",
          "type": "uint256"
        },
        {
          "internalType": "uint256",
          "name": "optionId",
          "type": "uint256"
        },
        {
          "internalType": "uint256",
          "name": "amount",
          "type": "uint256"
        }
      ],
      "stateMutability": "view",
      "type": "function"
    },
    {
      "inputs": [
        {
          "internalType": "uint256",
          "name": "tokenId",
          "type": "uint256"
        }
      ],
      "name": "getApproved",
      "outputs": [
        {
          "internalType": "address",
          "name": "",
          "type": "address"
        }
      ],
      "stateMutability": "view",
      "type": "function"
    },
    {
      "inputs": [
        {
          "internalType": "uint256",
          "name": "tokenId",
          "type": "uint256"
        }
      ],
      "name": "getBetInfo",
      "outputs": [
        {
          "internalType": "uint256",
          "name": "projectId",
          "type": "uint256"
        },
        {
          "internalType": "uint256",
          "name": "optionId",
          "type": "uint256"
        },
        {
          "internalType": "uint256",
          "name": "amount",
          "type": "uint256"
        }
      ],
      "stateMutability": "view",
      "type": "function"
    },
    {
      "inputs": [
        {
          "internalType": "uint256",
          "name": "tokenId",
          "type": "uint256"
        }
      ],
      "name": "getBetInfoStruct",
      "outputs": [
        {
          "components": [
            {
              "internalType": "uint256",
              "name": "projectId",
              "type": "uint256"
            },
            {
              "internalType": "uint256",
              "name": "optionId",
              "type": "uint256"
            },
            {
              "internalType": "uint256",
              "name": "amount",
              "type": "uint256"
            }
          ],
          "internalType": "struct BetNFT.BetInfo",
          "name": "",
          "type": "tuple"
        }
      ],
      "stateMutability": "view",
      "type": "function"
    },
    {
      "inputs": [
        {
          "internalType": "address",
          "name": "owner",
          "type": "address"
        },
        {
          "internalType": "address",
          "name": "operator",
          "type": "address"
        }
      ],
      "name": "isApprovedForAll",
      "outputs": [
        {
          "internalType": "bool",
          "name": "",
          "type": "bool"
        }
      ],
      "stateMutability": "view",
      "type": "function"
    },
    {
      "inputs": [
        {
          "internalType": "address",
          "name": "to",
          "type": "address"
        },
        {
          "internalType": "uint256",
          "name": "projectId",
          "type": "uint256"
        },
        {
          "internalType": "uint256",
          "name": "optionId",
          "type": "uint256"
        },
        {
          "internalType": "uint256",
          "name": "amount",
          "type": "uint256"
        }
      ],
      "name": "mint",
      "outputs": [
        {
          "internalType": "uint256",
          "name": "",
          "type": "uint256"
        }
      ],
      "stateMutability": "nonpayable",
      "type": "function"
    },
    {
      "inputs": [],
      "name": "name",
      "outputs": [
        {
          "internalType": "string",
          "name": "",
          "type": "string"
        }
      ],
      "stateMutability": "view",
      "type": "function"
    },
    {
      "inputs": [],
      "name": "owner",
      "outputs": [
        {
          "internalType": "address",
          "name": "",
          "type": "address"
        }
      ],
      "stateMutability": "view",
      "type": "function"
    },
    {
      "inputs": [
        {
          "internalType": "uint256",
          "name": "tokenId",
          "type": "uint256"
        }
      ],
      "name": "ownerOf",
      "outputs": [
        {
          "internalType": "address",
          "name": "",
          "type": "address"
        }
      ],
      "stateMutability": "view",
      "type": "function"
    },
    {
      "inputs": [],
      "name": "renounceOwnership",
      "outputs": [],
      "stateMutability": "nonpayable",
      "type": "function"
    },
    {
      "inputs": [
        {
          "internalType": "address",
          "name": "from",
          "type": "address"
        },
        {
          "internalType": "address",
          "name": "to",
          "type": "address"
        },
        {
          "internalType": "uint256",
          "name": "tokenId",
          "type": "uint256"
        }
      ],
      "name": "safeTransferFrom",
      "outputs": [],
      "stateMutability": "nonpayable",
      "type": "function"
    },
    {
      "inputs": [
        {
          "internalType": "address",
          "name": "from",
          "type": "address"
        },
        {
          "internalType": "address",
          "name": "to",
          "type": "address"
        },
        {
          "internalType": "uint256",
          "name": "tokenId",
          "type": "uint256"
        },
        {
          "internalType": "bytes",
          "name": "data",
          "type": "bytes"
        }
      ],
      "name": "safeTransferFrom",
      "outputs": [],
      "stateMutability": "nonpayable",
      "type": "function"
    },
    {
      "inputs": [
        {
          "internalType": "address",
          "name": "operator",
          "type": "address"
        },
        {
          "internalType": "bool",
          "name": "approved",
          "type": "bool"
        }
      ],
      "name": "setApprovalForAll",
      "outputs": [],
      "stateMutability": "nonpayable",
      "type": "function"
    },
    {
      "inputs": [
        {
          "internalType": "bytes4",
          "name": "interfaceId",
          "type": "bytes4"
        }
      ],
      "name": "supportsInterface",
      "outputs": [
        {
          "internalType": "bool",
          "name": "",
          "type": "bool"
        }
      ],
      "stateMutability": "view",
      "type": "function"
    },
    {
      "inputs": [],
      "name": "symbol",
      "outputs": [
        {
          "internalType": "string",
          "name": "",
          "type": "string"
        }
      ],
      "stateMutability": "view",
      "type": "function"
    },
    {
      "inputs": [
        {
          "internalType": "uint256",
          "name": "index",
          "type": "uint256"
        }
      ],
      "name": "tokenByIndex",
      "outputs": [
        {
          "internalType": "uint256",
          "name": "",
          "type": "uint256"
        }
      ],
      "stateMutability": "view",
      "type": "function"
    },
    {
      "inputs": [
        {
          "internalType": "address",
          "name": "owner",
          "type": "address"
        },
        {
          "internalType": "uint256",
          "name": "index",
          "type": "uint256"
        }
      ],
      "name": "tokenOfOwnerByIndex",
      "outputs": [
        {
          "internalType": "uint256",
          "name": "",
          "type": "uint256"
        }
      ],
      "stateMutability": "view",
      "type": "function"
    },
    {
      "inputs": [
        {
          "internalType": "uint256",
          "name": "tokenId",
          "type": "uint256"
        }
      ],
      "name": "tokenURI",
      "outputs": [
        {
          "internalType": "string",
          "name": "",
          "type": "string"
        }
      ],
      "stateMutability": "view",
      "type": "function"
    },
    {
      "inputs": [],
      "name": "totalSupply",
      "outputs": [
        {
          "internalType": "uint256",
          "name": "",
          "type": "uint256"
        }
      ],
      "stateMutability": "view",
      "type": "function"
    },
    {
      "inputs": [
        {
          "internalType": "address",
          "name": "from",
          "type": "address"
        },
        {
          "internalType": "address",
          "name": "to",
          "type": "address"
        },
        {
          "internalType": "uint256",
          "name": "tokenId",
          "type": "uint256"
        }
      ],
      "name": "transferFrom",
      "outputs": [],
      "stateMutability": "nonpayable",
      "type": "function"
    },
    {
      "inputs": [
        {
          "internalType": "address",
          "name": "newOwner",
          "type": "address"
        }
      ],
      "name": "transferOwnership",
      "outputs": [],
      "stateMutability": "nonpayable",
      "type": "function"
    }
  ],
  "bytecode": "0x60806040523480156200001157600080fd5b50336040518060400160405280600e81526020016d11585cde50995d08151a58dad95d60921b8152506040518060400160405280600381526020016211509560ea1b8152508160009081620000679190620001b1565b506001620000768282620001b1565b5050506001600160a01b038116620000a857604051631e4fbdf760e01b81526000600482015260240160405180910390fd5b620000b381620000ba565b506200027d565b600a80546001600160a01b038381166001600160a01b0319831681179093556040519116919082907f8be0079c531659141344cd1fd0a4f28419497f9722a3daafe3b4186f6b6457e090600090a35050565b634e487b7160e01b600052604160045260246000fd5b600181811c908216806200013757607f821691505b6020821081036200015857634e487b7160e01b600052602260045260246000fd5b50919050565b601f821115620001ac57600081815260208120601f850160051c81016020861015620001875750805b601f850160051c820191505b81811015620001a85782815560010162000193565b5050505b505050565b81516001600160401b03811115620001cd57620001cd6200010c565b620001e581620001de845462000122565b846200015e565b602080601f8311600181146200021d5760008415620002045750858301515b600019600386901b1c1916600185901b178555620001a8565b600085815260208120601f198616915b828110156200024e578886015182559484019460019091019084016200022d565b50858210156200026d5787850151600019600388901b60f8161c191681555b5050505050600190811b01905550565b611683806200028d6000396000f3fe608060405234801561001057600080fd5b506004361061014d5760003560e01c806370a08231116100c3578063a647e8ec1161007c578063a647e8ec1461031a578063b88d4fde1461032d578063c87b56dd14610340578063e177bef414610353578063e985e9c514610388578063f2fde38b1461039b57600080fd5b806370a082311461028a578063715018a61461029d57806379141f80146102a55780638da5cb5b146102ee57806395d89b41146102ff578063a22cb4651461030757600080fd5b80632330bb6d116101155780632330bb6d146101e157806323b872dd1461022b5780632f745c591461023e57806342842e0e146102515780634f6ccce7146102645780636352211e1461027757600080fd5b806301ffc9a71461015257806306fdde031461017a578063081812fc1461018f578063095ea7b3146101ba57806318160ddd146101cf575b600080fd5b61016561016036600461124c565b6103ae565b60405190151581526020015b60405180910390f35b6101826103bf565b60405161017191906112b9565b6101a261019d3660046112cc565b610451565b6040516001600160a01b039091168152602001610171565b6101cd6101c8366004611301565b61047a565b005b6008545b604051908152602001610171565b6102106101ef3660046112cc565b600c6020526000908152604090208054600182015460029092015490919083565b60408051938452602084019290925290820152606001610171565b6101cd61023936600461132b565b610489565b6101d361024c366004611301565b610519565b6101cd61025f36600461132b565b61057e565b6101d36102723660046112cc565b61059e565b6101a26102853660046112cc565b6105f7565b6101d3610298366004611367565b610602565b6101cd61064a565b6102106102b33660046112cc565b6000818152600c6020908152604091829020825160608101845281548082526001830154938201849052600290920154930183905293909250565b600a546001600160a01b03166101a2565b61018261065e565b6101cd610315366004611382565b61066d565b6101d36103283660046113be565b610678565b6101cd61033b36600461140d565b6106e4565b61018261034e3660046112cc565b6106fc565b6103666103613660046112cc565b610771565b6040805182518152602080840151908201529181015190820152606001610171565b6101656103963660046114e9565b6107ce565b6101cd6103a9366004611367565b6107fc565b60006103b98261083a565b92915050565b6060600080546103ce9061151c565b80601f01602080910402602001604051908101604052809291908181526020018280546103fa9061151c565b80156104475780601f1061041c57610100808354040283529160200191610447565b820191906000526020600020905b81548152906001019060200180831161042a57829003601f168201915b5050505050905090565b600061045c8261085f565b506000828152600460205260409020546001600160a01b03166103b9565b610485828233610898565b5050565b6001600160a01b0382166104b857604051633250574960e11b8152600060048201526024015b60405180910390fd5b60006104c58383336108a5565b9050836001600160a01b0316816001600160a01b031614610513576040516364283d7b60e01b81526001600160a01b03808616600483015260248201849052821660448201526064016104af565b50505050565b600061052483610602565b82106105555760405163295f44f760e21b81526001600160a01b0384166004820152602481018390526044016104af565b506001600160a01b03919091166000908152600660209081526040808320938352929052205490565b610599838383604051806020016040528060008152506106e4565b505050565b60006105a960085490565b82106105d25760405163295f44f760e21b815260006004820152602481018390526044016104af565b600882815481106105e5576105e5611556565b90600052602060002001549050919050565b60006103b98261085f565b60006001600160a01b03821661062e576040516322718ad960e21b8152600060048201526024016104af565b506001600160a01b031660009081526003602052604090205490565b6106526108ba565b61065c60006108e7565b565b6060600180546103ce9061151c565b610485338383610939565b60006106826108ba565b600b80546000918261069383611582565b9190505590506106a386826109d8565b6040805160608101825295865260208087019586528682019485526000838152600c9091522094518555925160018501555051600290920191909155919050565b6106ef848484610489565b6105133385858585610a3d565b60606107078261085f565b50600061071f60408051602081019091526000815290565b9050600081511161073f576040518060200160405280600081525061076a565b8061074984610b68565b60405160200161075a92919061159b565b6040516020818303038152906040525b9392505050565b61079560405180606001604052806000815260200160008152602001600081525090565b506000908152600c6020908152604091829020825160608101845281548152600182015492810192909252600201549181019190915290565b6001600160a01b03918216600090815260056020908152604080832093909416825291909152205460ff1690565b6108046108ba565b6001600160a01b03811661082e57604051631e4fbdf760e01b8152600060048201526024016104af565b610837816108e7565b50565b60006001600160e01b0319821663780e9d6360e01b14806103b957506103b982610bfb565b6000818152600260205260408120546001600160a01b0316806103b957604051637e27328960e01b8152600481018490526024016104af565b6105998383836001610c4b565b60006108b2848484610d51565b949350505050565b600a546001600160a01b0316331461065c5760405163118cdaa760e01b81523360048201526024016104af565b600a80546001600160a01b038381166001600160a01b0319831681179093556040519116919082907f8be0079c531659141344cd1fd0a4f28419497f9722a3daafe3b4186f6b6457e090600090a35050565b6001600160a01b03821661096b57604051630b61174360e31b81526001600160a01b03831660048201526024016104af565b6001600160a01b03838116600081815260056020908152604080832094871680845294825291829020805460ff191686151590811790915591519182527f17307eab39ab6107e8899845ad3d59bd9653f200f220920489ca2b5937696c31910160405180910390a3505050565b6001600160a01b038216610a0257604051633250574960e11b8152600060048201526024016104af565b6000610a10838360006108a5565b90506001600160a01b03811615610599576040516339e3563760e11b8152600060048201526024016104af565b6001600160a01b0383163b15610b6157604051630a85bd0160e11b81526001600160a01b0384169063150b7a0290610a7f9088908890879087906004016115ca565b6020604051808303816000875af1925050508015610aba575060408051601f3d908101601f19168201909252610ab791810190611607565b60015b610b23573d808015610ae8576040519150601f19603f3d011682016040523d82523d6000602084013e610aed565b606091505b508051600003610b1b57604051633250574960e11b81526001600160a01b03851660048201526024016104af565b805160208201fd5b6001600160e01b03198116630a85bd0160e11b14610b5f57604051633250574960e11b81526001600160a01b03851660048201526024016104af565b505b5050505050565b60606000610b7583610e1e565b600101905060008167ffffffffffffffff811115610b9557610b956113f7565b6040519080825280601f01601f191660200182016040528015610bbf576020820181803683370190505b5090508181016020015b600019016f181899199a1a9b1b9c1cb0b131b232b360811b600a86061a8153600a8504945084610bc957509392505050565b60006001600160e01b031982166380ac58cd60e01b1480610c2c57506001600160e01b03198216635b5e139f60e01b145b806103b957506301ffc9a760e01b6001600160e01b03198316146103b9565b8080610c5f57506001600160a01b03821615155b15610d21576000610c6f8461085f565b90506001600160a01b03831615801590610c9b5750826001600160a01b0316816001600160a01b031614155b8015610cae5750610cac81846107ce565b155b15610cd75760405163a9fbf51f60e01b81526001600160a01b03841660048201526024016104af565b8115610d1f5783856001600160a01b0316826001600160a01b03167f8c5be1e5ebec7d5bd14f71427d1e84f3dd0314c0f7b2291e5b200ac8c7c3b92560405160405180910390a45b505b5050600090815260046020526040902080546001600160a01b0319166001600160a01b0392909216919091179055565b600080610d5f858585610ef6565b90506001600160a01b038116610dbc57610db784600880546000838152600960205260408120829055600182018355919091527ff3f7a9fe364faab93b216da50a3214154f22a0a2b415b23a84c8169e8b636ee30155565b610ddf565b846001600160a01b0316816001600160a01b031614610ddf57610ddf8185610fef565b6001600160a01b038516610dfb57610df684611070565b6108b2565b846001600160a01b0316816001600160a01b0316146108b2576108b2858561111f565b60008072184f03e93ff9f4daa797ed6e38ed64bf6a1f0160401b8310610e5d5772184f03e93ff9f4daa797ed6e38ed64bf6a1f0160401b830492506040015b6d04ee2d6d415b85acef81000000008310610e89576d04ee2d6d415b85acef8100000000830492506020015b662386f26fc100008310610ea757662386f26fc10000830492506010015b6305f5e1008310610ebf576305f5e100830492506008015b6127108310610ed357612710830492506004015b60648310610ee5576064830492506002015b600a83106103b95760010192915050565b6000828152600260205260408120546001600160a01b0390811690831615610f2357610f2381848661116f565b6001600160a01b03811615610f6157610f40600085600080610c4b565b6001600160a01b038116600090815260036020526040902080546000190190555b6001600160a01b03851615610f90576001600160a01b0385166000908152600360205260409020805460010190555b60008481526002602052604080822080546001600160a01b0319166001600160a01b0389811691821790925591518793918516917fddf252ad1be2c89b69c2b068fc378daa952ba7f163c4a11628f55a4df523b3ef91a4949350505050565b6000610ffa83610602565b6000838152600760209081526040808320546001600160a01b038816845260069092529091209192509081831461105157600083815260208281526040808320548584528184208190558352600790915290208290555b6000938452600760209081526040808620869055938552525081205550565b60085460009061108290600190611624565b600083815260096020526040812054600880549394509092849081106110aa576110aa611556565b9060005260206000200154905080600883815481106110cb576110cb611556565b600091825260208083209091019290925582815260099091526040808220849055858252812055600880548061110357611103611637565b6001900381819060005260206000200160009055905550505050565b6000600161112c84610602565b6111369190611624565b6001600160a01b039093166000908152600660209081526040808320868452825280832085905593825260079052919091209190915550565b61117a8383836111d3565b610599576001600160a01b0383166111a857604051637e27328960e01b8152600481018290526024016104af565b60405163177e802f60e01b81526001600160a01b0383166004820152602481018290526044016104af565b60006001600160a01b038316158015906108b25750826001600160a01b0316846001600160a01b0316148061120d575061120d84846107ce565b806108b25750506000908152600460205260409020546001600160a01b03908116911614919050565b6001600160e01b03198116811461083757600080fd5b60006020828403121561125e57600080fd5b813561076a81611236565b60005b8381101561128457818101518382015260200161126c565b50506000910152565b600081518084526112a5816020860160208601611269565b601f01601f19169290920160200192915050565b60208152600061076a602083018461128d565b6000602082840312156112de57600080fd5b5035919050565b80356001600160a01b03811681146112fc57600080fd5b919050565b6000806040838503121561131457600080fd5b61131d836112e5565b946020939093013593505050565b60008060006060848603121561134057600080fd5b611349846112e5565b9250611357602085016112e5565b9150604084013590509250925092565b60006020828403121561137957600080fd5b61076a826112e5565b6000806040838503121561139557600080fd5b61139e836112e5565b9150602083013580151581146113b357600080fd5b809150509250929050565b600080600080608085870312156113d457600080fd5b6113dd856112e5565b966020860135965060408601359560600135945092505050565b634e487b7160e01b600052604160045260246000fd5b6000806000806080858703121561142357600080fd5b61142c856112e5565b935061143a602086016112e5565b925060408501359150606085013567ffffffffffffffff8082111561145e57600080fd5b818701915087601f83011261147257600080fd5b813581811115611484576114846113f7565b604051601f8201601f19908116603f011681019083821181831017156114ac576114ac6113f7565b816040528281528a60208487010111156114c557600080fd5b82602086016020830137600060208483010152809550505050505092959194509250565b600080604083850312156114fc57600080fd5b611505836112e5565b9150611513602084016112e5565b90509250929050565b600181811c9082168061153057607f821691505b60208210810361155057634e487b7160e01b600052602260045260246000fd5b50919050565b634e487b7160e01b600052603260045260246000fd5b634e487b7160e01b600052601160045260246000fd5b6000600182016115945761159461156c565b5060010190565b600083516115ad818460208801611269565b8351908301906115c1818360208801611269565b01949350505050565b6001600160a01b03858116825284166020820152604081018390526080606082018190526000906115fd9083018461128d565b9695505050505050565b60006020828403121561161957600080fd5b815161076a81611236565b818103818111156103b9576103b961156c565b634e487b7160e01b600052603160045260246000fdfea2646970667358221220d490959508223cdc0d2f0e50841fabbe402e8ba234d4640969974a15891d171464736f6c63430008140033",
  "linkReferences": {},
  "deployedLinkReferences": {}
}