{
  "_format": "hh-sol-artifact-1",
  "contractName": "EasyBet",
  "sourceName": "contracts/EasyBet.sol",
  "abi": [
    {
      "inputs": [
        {
          "internalType": "address",
          "name": "_betToken",
          "type": "address"
        },
        {
          "internalType": "address",
          "name": "_betNFT",
          "type": "address"
        }
      ],
      "stateMutability": "nonpayable",
      "type": "constructor"
    },
    {
      "anonymous": false,
      "inputs": [
        {
          "indexed": false,
          "internalType": "uint256",
          "name": "projectId",
          "type": "uint256"
        },
        {
          "indexed": false,
          "internalType": "uint256",
          "name": "optionId",
          "type": "uint256"
        },
        {
          "indexed": false,
          "internalType": "uint256",
          "name": "tokenId",
          "type": "uint256"
        },
        {
          "indexed": false,
          "internalType": "address",
          "name": "player",
          "type": "address"
        },
        {
          "indexed": false,
          "internalType": "uint256",
          "name": "amount",
          "type": "uint256"
        }
      ],
      "name": "BetPlaced",
      "type": "event"
    },
    {
      "anonymous": false,
      "inputs": [
        {
          "indexed": false,
          "internalType": "uint256",
          "name": "orderId",
          "type": "uint256"
        }
      ],
      "name": "OrderCancelled",
      "type": "event"
    },
    {
      "anonymous": false,
      "inputs": [
        {
          "indexed": false,
          "internalType": "uint256",
          "name": "orderId",
          "type": "uint256"
        },
        {
          "indexed": false,
          "internalType": "uint256",
          "name": "tokenId",
          "type": "uint256"
        },
        {
          "indexed": false,
          "internalType": "uint256",
          "name": "price",
          "type": "uint256"
        }
      ],
      "name": "OrderCreated",
      "type": "event"
    },
    {
      "anonymous": false,
      "inputs": [
        {
          "indexed": false,
          "internalType": "uint256",
          "name": "orderId",
          "type": "uint256"
        },
        {
          "indexed": false,
          "internalType": "address",
          "name": "buyer",
          "type": "address"
        }
      ],
      "name": "OrderFilled",
      "type": "event"
    },
    {
      "anonymous": false,
      "inputs": [
        {
          "indexed": false,
          "internalType": "uint256",
          "name": "projectId",
          "type": "uint256"
        },
        {
          "indexed": false,
          "internalType": "string",
          "name": "title",
          "type": "string"
        },
        {
          "indexed": false,
          "internalType": "uint256",
          "name": "endTime",
          "type": "uint256"
        }
      ],
      "name": "ProjectCreated",
      "type": "event"
    },
    {
      "anonymous": false,
      "inputs": [
        {
          "indexed": false,
          "internalType": "uint256",
          "name": "projectId",
          "type": "uint256"
        },
        {
          "indexed": false,
          "internalType": "uint256",
          "name": "winningOption",
          "type": "uint256"
        }
      ],
      "name": "ProjectSettled",
      "type": "event"
    },
    {
      "inputs": [],
      "name": "betNFT",
      "outputs": [
        {
          "internalType": "contract BetNFT",
          "name": "",
          "type": "address"
        }
      ],
      "stateMutability": "view",
      "type": "function"
    },
    {
      "inputs": [],
      "name": "betToken",
      "outputs": [
        {
          "internalType": "contract BetToken",
          "name": "",
          "type": "address"
        }
      ],
      "stateMutability": "view",
      "type": "function"
    },
    {
      "inputs": [
        {
          "internalType": "uint256",
          "name": "_orderId",
          "type": "uint256"
        }
      ],
      "name": "cancelOrder",
      "outputs": [],
      "stateMutability": "nonpayable",
      "type": "function"
    },
    {
      "inputs": [
        {
          "internalType": "uint256",
          "name": "_tokenId",
          "type": "uint256"
        },
        {
          "internalType": "uint256",
          "name": "_price",
          "type": "uint256"
        }
      ],
      "name": "createOrder",
      "outputs": [],
      "stateMutability": "nonpayable",
      "type": "function"
    },
    {
      "inputs": [
        {
          "internalType": "string",
          "name": "_title",
          "type": "string"
        },
        {
          "internalType": "string[]",
          "name": "_options",
          "type": "string[]"
        },
        {
          "internalType": "uint256",
          "name": "_endTime",
          "type": "uint256"
        }
      ],
      "name": "createProject",
      "outputs": [],
      "stateMutability": "nonpayable",
      "type": "function"
    },
    {
      "inputs": [
        {
          "internalType": "uint256",
          "name": "_orderId",
          "type": "uint256"
        }
      ],
      "name": "fillOrder",
      "outputs": [],
      "stateMutability": "nonpayable",
      "type": "function"
    },
    {
      "inputs": [],
      "name": "getActiveOrders",
      "outputs": [
        {
          "components": [
            {
              "internalType": "uint256",
              "name": "tokenId",
              "type": "uint256"
            },
            {
              "internalType": "address",
              "name": "seller",
              "type": "address"
            },
            {
              "internalType": "uint256",
              "name": "price",
              "type": "uint256"
            },
            {
              "internalType": "bool",
              "name": "active",
              "type": "bool"
            }
          ],
          "internalType": "struct EasyBet.Order[]",
          "name": "",
          "type": "tuple[]"
        }
      ],
      "stateMutability": "view",
      "type": "function"
    },
    {
      "inputs": [
        {
          "internalType": "uint256",
          "name": "_tokenId",
          "type": "uint256"
        }
      ],
      "name": "getOrdersByToken",
      "outputs": [
        {
          "components": [
            {
              "internalType": "uint256",
              "name": "tokenId",
              "type": "uint256"
            },
            {
              "internalType": "address",
              "name": "seller",
              "type": "address"
            },
            {
              "internalType": "uint256",
              "name": "price",
              "type": "uint256"
            },
            {
              "internalType": "bool",
              "name": "active",
              "type": "bool"
            }
          ],
          "internalType": "struct EasyBet.Order",
          "name": "",
          "type": "tuple"
        }
      ],
      "stateMutability": "view",
      "type": "function"
    },
    {
      "inputs": [
        {
          "internalType": "uint256",
          "name": "_projectId",
          "type": "uint256"
        }
      ],
      "name": "getProjectInfo",
      "outputs": [
        {
          "internalType": "uint256",
          "name": "id",
          "type": "uint256"
        },
        {
          "internalType": "string",
          "name": "title",
          "type": "string"
        },
        {
          "internalType": "string[]",
          "name": "options",
          "type": "string[]"
        },
        {
          "internalType": "uint256",
          "name": "totalPool",
          "type": "uint256"
        },
        {
          "internalType": "uint256",
          "name": "endTime",
          "type": "uint256"
        },
        {
          "internalType": "enum EasyBet.ProjectStatus",
          "name": "status",
          "type": "uint8"
        },
        {
          "internalType": "uint256",
          "name": "winningOption",
          "type": "uint256"
        },
        {
          "internalType": "uint256[]",
          "name": "optionPools",
          "type": "uint256[]"
        }
      ],
      "stateMutability": "view",
      "type": "function"
    },
    {
      "inputs": [
        {
          "internalType": "uint256",
          "name": "_projectId",
          "type": "uint256"
        }
      ],
      "name": "getProjectTokenIds",
      "outputs": [
        {
          "internalType": "uint256[]",
          "name": "",
          "type": "uint256[]"
        }
      ],
      "stateMutability": "view",
      "type": "function"
    },
    {
      "inputs": [
        {
          "internalType": "uint256",
          "name": "_projectId",
          "type": "uint256"
        },
        {
          "internalType": "address",
          "name": "_user",
          "type": "address"
        }
      ],
      "name": "getUserTicketsInProject",
      "outputs": [
        {
          "internalType": "uint256[]",
          "name": "",
          "type": "uint256[]"
        }
      ],
      "stateMutability": "view",
      "type": "function"
    },
    {
      "inputs": [],
      "name": "judge",
      "outputs": [
        {
          "internalType": "address",
          "name": "",
          "type": "address"
        }
      ],
      "stateMutability": "view",
      "type": "function"
    },
    {
      "inputs": [],
      "name": "orderCount",
      "outputs": [
        {
          "internalType": "uint256",
          "name": "",
          "type": "uint256"
        }
      ],
      "stateMutability": "view",
      "type": "function"
    },
    {
      "inputs": [
        {
          "internalType": "uint256",
          "name": "",
          "type": "uint256"
        }
      ],
      "name": "orders",
      "outputs": [
        {
          "internalType": "uint256",
          "name": "tokenId",
          "type": "uint256"
        },
        {
          "internalType": "address",
          "name": "seller",
          "type": "address"
        },
        {
          "internalType": "uint256",
          "name": "price",
          "type": "uint256"
        },
        {
          "internalType": "bool",
          "name": "active",
          "type": "bool"
        }
      ],
      "stateMutability": "view",
      "type": "function"
    },
    {
      "inputs": [
        {
          "internalType": "uint256",
          "name": "_projectId",
          "type": "uint256"
        },
        {
          "internalType": "uint256",
          "name": "_optionId",
          "type": "uint256"
        },
        {
          "internalType": "uint256",
          "name": "_amount",
          "type": "uint256"
        }
      ],
      "name": "placeBet",
      "outputs": [],
      "stateMutability": "nonpayable",
      "type": "function"
    },
    {
      "inputs": [],
      "name": "projectCount",
      "outputs": [
        {
          "internalType": "uint256",
          "name": "",
          "type": "uint256"
        }
      ],
      "stateMutability": "view",
      "type": "function"
    },
    {
      "inputs": [
        {
          "internalType": "uint256",
          "name": "",
          "type": "uint256"
        }
      ],
      "name": "projects",
      "outputs": [
        {
          "internalType": "uint256",
          "name": "id",
          "type": "uint256"
        },
        {
          "internalType": "string",
          "name": "title",
          "type": "string"
        },
        {
          "internalType": "uint256",
          "name": "totalPool",
          "type": "uint256"
        },
        {
          "internalType": "uint256",
          "name": "endTime",
          "type": "uint256"
        },
        {
          "internalType": "enum EasyBet.ProjectStatus",
          "name": "status",
          "type": "uint8"
        },
        {
          "internalType": "uint256",
          "name": "winningOption",
          "type": "uint256"
        }
      ],
      "stateMutability": "view",
      "type": "function"
    },
    {
      "inputs": [
        {
          "internalType": "uint256",
          "name": "_projectId",
          "type": "uint256"
        },
        {
          "internalType": "uint256",
          "name": "_winningOption",
          "type": "uint256"
        }
      ],
      "name": "settleProject",
      "outputs": [],
      "stateMutability": "nonpayable",
      "type": "function"
    },
    {
      "inputs": [
        {
          "internalType": "uint256",
          "name": "",
          "type": "uint256"
        }
      ],
      "name": "tokenToOrder",
      "outputs": [
        {
          "internalType": "uint256",
          "name": "",
          "type": "uint256"
        }
      ],
      "stateMutability": "view",
      "type": "function"
    }
  ],
  "bytecode": "0x60806040523480156200001157600080fd5b50604051620023d8380380620023d883398101604081905262000034916200008e565b600080546001600160a01b03199081163317909155600180546001600160a01b0394851690831617905560028054929093169116179055620000c6565b80516001600160a01b03811681146200008957600080fd5b919050565b60008060408385031215620000a257600080fd5b620000ad8362000071565b9150620000bd6020840162000071565b90509250929050565b61230280620000d66000396000f3fe608060405234801561001057600080fd5b50600436106101205760003560e01c806367b830ad116100ad5780637f16edcd116100715780637f16edcd1461027a578063a8174e5d1461028d578063a85c38ef146102ad578063e71c969714610319578063fabf59681461032c57600080fd5b806367b830ad1461021b5780636920f52b1461022e57806378691f161461024157806379109baa146102545780637bf3ee1c1461026757600080fd5b806332422801116100f4578063324228011461019f57806336fbad26146101bf578063514fcac7146101c857806354553933146101dd578063573255f4146101f057600080fd5b806286e68b14610125578063107046bd1461014357806310d3b240146101685780632453ffa814610196575b600080fd5b61012d610353565b60405161013a9190611b56565b60405180910390f35b610156610151366004611bcd565b6104ce565b60405161013a96959493929190611c64565b610188610176366004611bcd565b60056020526000908152604090205481565b60405190815260200161013a565b61018860075481565b6101b26101ad366004611bcd565b610592565b60405161013a9190611ce4565b61018860065481565b6101db6101d6366004611bcd565b6105f7565b005b6101db6101eb366004611db5565b6106fc565b600054610203906001600160a01b031681565b6040516001600160a01b03909116815260200161013a565b6101db610229366004611bcd565b61096b565b600254610203906001600160a01b031681565b600154610203906001600160a01b031681565b6101db610262366004611ea4565b610bb1565b6101db610275366004611ea4565b610e47565b6101b2610288366004611edb565b61122b565b6102a061029b366004611bcd565b611422565b60405161013a9190611f0b565b6102ef6102bb366004611bcd565b600460205260009081526040902080546001820154600283015460039093015491926001600160a01b039091169160ff1684565b604080519485526001600160a01b039093166020850152918301521515606082015260800161013a565b6101db610327366004611f41565b6114fa565b61033f61033a366004611bcd565b61182e565b60405161013a989796959493929190611f6d565b6060600060015b600754811161039d5760008181526004602052604090206003015460ff161561038b578161038781612035565b9250505b8061039581612035565b91505061035a565b5060008167ffffffffffffffff8111156103b9576103b9611cfe565b60405190808252806020026020018201604052801561040b57816020015b6040805160808101825260008082526020808301829052928201819052606082015282526000199092019101816103d75790505b509050600060015b60075481116104c55760008181526004602052604090206003015460ff16156104b35760008181526004602090815260409182902082516080810184528154815260018201546001600160a01b03169281019290925260028101549282019290925260039091015460ff161515606082015283518490849081106104995761049961204e565b602002602001018190525081806104af90612035565b9250505b806104bd81612035565b915050610413565b50909392505050565b600360205260009081526040902080546001820180549192916104f090612064565b80601f016020809104026020016040519081016040528092919081815260200182805461051c90612064565b80156105695780601f1061053e57610100808354040283529160200191610569565b820191906000526020600020905b81548152906001019060200180831161054c57829003601f168201915b5050506003840154600485015460058601546006909601549495919490935060ff909116915086565b6000818152600360209081526040918290206007018054835181840281018401909452808452606093928301828280156105eb57602002820191906000526020600020905b8154815260200190600101908083116105d7575b50505050509050919050565b6000818152600460205260409020600381015460ff166106515760405162461bcd60e51b815260206004820152601060248201526f4f72646572206e6f742061637469766560801b60448201526064015b60405180910390fd5b60018101546001600160a01b0316331461069f5760405162461bcd60e51b815260206004820152600f60248201526e2737ba1037b93232b91037bbb732b960891b6044820152606401610648565b60038101805460ff19169055805460009081526005602052604080822091909155517f61b9399f2f0f32ca39ce8d7be32caed5ec22fe07a6daba3a467ed479ec606582906106f09084815260200190565b60405180910390a15050565b6000546001600160a01b031633146107515760405162461bcd60e51b81526020600482015260186024820152774f6e6c79206a756467652063616e2063616c6c207468697360401b6044820152606401610648565b6002825110156107a35760405162461bcd60e51b815260206004820152601b60248201527f4174206c656173742032206f7074696f6e7320726571756972656400000000006044820152606401610648565b4281116107f25760405162461bcd60e51b815260206004820152601a60248201527f456e642074696d65206d75737420626520696e206675747572650000000000006044820152606401610648565b6006805490600061080283612035565b909155505060065460008181526003602052604090209081556001810161082985826120ed565b50825161083f9060028301906020860190611a91565b50600481810183905560058201805460ff191690556001546040516323b872dd60e01b8152683635c9adc5dea00000926001600160a01b03909216916323b872dd9161089191339130918791016121ad565b6020604051808303816000875af11580156108b0573d6000803e3d6000fd5b505050506040513d601f19601f820116820180604052508101906108d491906121d1565b6109205760405162461bcd60e51b815260206004820152601c60248201527f496e697469616c20706f6f6c207472616e73666572206661696c6564000000006044820152606401610648565b600382018190556006546040517f6245d01eb0db8df9242165c3ee1e2324367f93303d7b8f6a86e38a8767e643ae9161095c91889087906121f3565b60405180910390a15050505050565b6000818152600460205260409020600381015460ff166109c05760405162461bcd60e51b815260206004820152601060248201526f4f72646572206e6f742061637469766560801b6044820152606401610648565b6001810154336001600160a01b0390911603610a1e5760405162461bcd60e51b815260206004820152601960248201527f43616e6e6f742062757920796f7572206f776e206f72646572000000000000006044820152606401610648565b600180549082015460028301546040516323b872dd60e01b81526001600160a01b03938416936323b872dd93610a5d93339392909116916004016121ad565b6020604051808303816000875af1158015610a7c573d6000803e3d6000fd5b505050506040513d601f19601f82011682018060405250810190610aa091906121d1565b610aec5760405162461bcd60e51b815260206004820152601760248201527f5061796d656e74207472616e73666572206661696c65640000000000000000006044820152606401610648565b600254600182015482546040516323b872dd60e01b81526001600160a01b03938416936323b872dd93610b27939116913391906004016121ad565b600060405180830381600087803b158015610b4157600080fd5b505af1158015610b55573d6000803e3d6000fd5b5050505060038101805460ff191690558054600090815260056020908152604080832092909255815184815233918101919091527f74ebbab24ee8774729982ac100f931306b160f431f7f1483cc380186d56754bc91016106f0565b6002546040516331a9108f60e11b81526004810184905233916001600160a01b031690636352211e90602401602060405180830381865afa158015610bfa573d6000803e3d6000fd5b505050506040513d601f19601f82011682018060405250810190610c1e919061221c565b6001600160a01b031614610c665760405162461bcd60e51b815260206004820152600f60248201526e2737ba103a37b5b2b71037bbb732b960891b6044820152606401610648565b60008281526005602052604090205415610cb95760405162461bcd60e51b81526020600482015260146024820152734f7264657220616c72656164792065786973747360601b6044820152606401610648565b60008111610d095760405162461bcd60e51b815260206004820152601c60248201527f5072696365206d7573742062652067726561746572207468616e2030000000006044820152606401610648565b60078054906000610d1983612035565b909155505060408051608081018252838152336020808301918252828401858152600160608501818152600780546000908152600480875289822098518955965193880180546001600160a01b0319166001600160a01b03958616179055935160028089019190915591516003909701805460ff1916971515979097179096559454888352600590935290859020919091559154925163095ea7b360e01b815230918101919091526024810185905291169063095ea7b390604401600060405180830381600087803b158015610dee57600080fd5b505af1158015610e02573d6000803e3d6000fd5b5050600754604080519182526020820186905281018490527f7e3297793a932665ad789941fefa66afb013f1e1dad602d7738f5ebf607b173b925060600190506106f0565b6000546001600160a01b03163314610e9c5760405162461bcd60e51b81526020600482015260186024820152774f6e6c79206a756467652063616e2063616c6c207468697360401b6044820152606401610648565b600082815260036020526040812090600582015460ff166002811115610ec457610ec4611c2c565b14610f065760405162461bcd60e51b815260206004820152601260248201527150726f6a656374206e6f742061637469766560701b6044820152606401610648565b8060040154421015610f4e5760405162461bcd60e51b8152602060048201526011602482015270141c9bda9958dd081b9bdd08195b991959607a1b6044820152606401610648565b60028101548210610f9a5760405162461bcd60e51b815260206004820152601660248201527524b73b30b634b2103bb4b73734b7339037b83a34b7b760511b6044820152606401610648565b60058101805460ff1916600117905560068101829055600082815260088201602052604090205480156111dd57600382015460005b60078401548110156111da576000846007018281548110610ff257610ff261204e565b600091825260208220015460025460405162f2283f60e71b815260048101839052919350829182916001600160a01b0316906379141f8090602401606060405180830381865afa15801561104a573d6000803e3d6000fd5b505050506040513d601f19601f8201168201806040525081019061106e9190612239565b9250925092508882036111c3576002546040516331a9108f60e11b8152600481018690526000916001600160a01b031690636352211e90602401602060405180830381865afa1580156110c5573d6000803e3d6000fd5b505050506040513d601f19601f820116820180604052508101906110e9919061221c565b90506000886110f88985612267565b611102919061227e565b60015460405163a9059cbb60e01b81526001600160a01b0385811660048301526024820184905292935091169063a9059cbb906044016020604051808303816000875af1158015611157573d6000803e3d6000fd5b505050506040513d601f19601f8201168201806040525081019061117b91906121d1565b6111c05760405162461bcd60e51b815260206004820152601660248201527514995dd85c99081d1c985b9cd9995c8819985a5b195960521b6044820152606401610648565b50505b5050505080806111d290612035565b915050610fcf565b50505b60058201805460ff1916600217905560408051858152602081018590527fc18a48e1baa059c46b608b2e06c31b31e0136de06600204ba4ea3dd6d427f972910160405180910390a150505050565b600082815260036020526040812060078101546060929067ffffffffffffffff81111561125a5761125a611cfe565b604051908082528060200260200182016040528015611283578160200160208202803683370190505b5090506000805b60078401548110156113795760008460070182815481106112ad576112ad61204e565b6000918252602090912001546002546040516331a9108f60e11b8152600481018390529192506001600160a01b0389811692911690636352211e90602401602060405180830381865afa158015611308573d6000803e3d6000fd5b505050506040513d601f19601f8201168201806040525081019061132c919061221c565b6001600160a01b031603611366578084848151811061134d5761134d61204e565b60209081029190910101528261136281612035565b9350505b508061137181612035565b91505061128a565b5060008167ffffffffffffffff81111561139557611395611cfe565b6040519080825280602002602001820160405280156113be578160200160208202803683370190505b50905060005b82811015611415578381815181106113de576113de61204e565b60200260200101518282815181106113f8576113f861204e565b60209081029190910101528061140d81612035565b9150506113c4565b5093505050505b92915050565b604080516080810182526000808252602082018190529181018290526060810191909152600082815260056020526040812054908190036114a55760405162461bcd60e51b815260206004820152601760248201527f4e6f206f7264657220666f72207468697320746f6b656e0000000000000000006044820152606401610648565b60009081526004602090815260409182902082516080810184528154815260018201546001600160a01b03169281019290925260028101549282019290925260039091015460ff161515606082015292915050565b600083815260036020526040812090600582015460ff16600281111561152257611522611c2c565b146115645760405162461bcd60e51b815260206004820152601260248201527150726f6a656374206e6f742061637469766560701b6044820152606401610648565b806004015442106115ae5760405162461bcd60e51b815260206004820152601460248201527310995d1d1a5b99c81c195c9a5bd908195b99195960621b6044820152606401610648565b600281015483106115f25760405162461bcd60e51b815260206004820152600e60248201526d24b73b30b634b21037b83a34b7b760911b6044820152606401610648565b670de0b6b3a764000082101561164a5760405162461bcd60e51b815260206004820152601d60248201527f4d696e696d756d2062657420616d6f756e74206973203120746f6b656e0000006044820152606401610648565b6001546040516323b872dd60e01b81526001600160a01b03909116906323b872dd9061167e903390309087906004016121ad565b6020604051808303816000875af115801561169d573d6000803e3d6000fd5b505050506040513d601f19601f820116820180604052508101906116c191906121d1565b6117055760405162461bcd60e51b8152602060048201526015602482015274151bdad95b881d1c985b9cd9995c8819985a5b1959605a1b6044820152606401610648565b8181600301600082825461171991906122a0565b909155505060008381526008820160205260408120805484929061173e9084906122a0565b9091555050600254604051632991fa3b60e21b81523360048201526024810186905260448101859052606481018490526000916001600160a01b03169063a647e8ec906084016020604051808303816000875af11580156117a3573d6000803e3d6000fd5b505050506040513d601f19601f820116820180604052508101906117c791906122b3565b600783018054600181018255600091825260209182902001829055604080518881529182018790528101829052336060820152608081018590529091507f410cb29aa97fc272b14a7f2e26b65385af91d5dec326f93133d401cf123786999060a00161095c565b600081815260036020526040812060028101546060918291849182918291829186919067ffffffffffffffff81111561186957611869611cfe565b604051908082528060200260200182016040528015611892578160200160208202803683370190505b50915060005b60028201548110156118e657600081815260088301602052604090205483518490839081106118c9576118c961204e565b6020908102919091010152806118de81612035565b915050611898565b5080600001548160010182600201836003015484600401548560050160009054906101000a900460ff1686600601548886805461192290612064565b80601f016020809104026020016040519081016040528092919081815260200182805461194e90612064565b801561199b5780601f106119705761010080835404028352916020019161199b565b820191906000526020600020905b81548152906001019060200180831161197e57829003601f168201915b5050505050965085805480602002602001604051908101604052809291908181526020016000905b82821015611a6f5783829060005260206000200180546119e290612064565b80601f0160208091040260200160405190810160405280929190818152602001828054611a0e90612064565b8015611a5b5780601f10611a3057610100808354040283529160200191611a5b565b820191906000526020600020905b815481529060010190602001808311611a3e57829003601f168201915b5050505050815260200190600101906119c3565b5050505095509850985098509850985098509850985050919395975091939597565b828054828255906000526020600020908101928215611ad7579160200282015b82811115611ad75782518290611ac790826120ed565b5091602001919060010190611ab1565b50611ae3929150611ae7565b5090565b80821115611ae3576000611afb8282611b04565b50600101611ae7565b508054611b1090612064565b6000825580601f10611b20575050565b601f016020900490600052602060002090810190611b3e9190611b41565b50565b5b80821115611ae35760008155600101611b42565b6020808252825182820181905260009190848201906040850190845b81811015611bc157611bae838551805182526020808201516001600160a01b031690830152604080820151908301526060908101511515910152565b9284019260809290920191600101611b72565b50909695505050505050565b600060208284031215611bdf57600080fd5b5035919050565b6000815180845260005b81811015611c0c57602081850181015186830182015201611bf0565b506000602082860101526020601f19601f83011685010191505092915050565b634e487b7160e01b600052602160045260246000fd5b60038110611c6057634e487b7160e01b600052602160045260246000fd5b9052565b86815260c060208201526000611c7d60c0830188611be6565b9050856040830152846060830152611c986080830185611c42565b8260a0830152979650505050505050565b600081518084526020808501945080840160005b83811015611cd957815187529582019590820190600101611cbd565b509495945050505050565b602081526000611cf76020830184611ca9565b9392505050565b634e487b7160e01b600052604160045260246000fd5b604051601f8201601f1916810167ffffffffffffffff81118282101715611d3d57611d3d611cfe565b604052919050565b600082601f830112611d5657600080fd5b813567ffffffffffffffff811115611d7057611d70611cfe565b611d83601f8201601f1916602001611d14565b818152846020838601011115611d9857600080fd5b816020850160208301376000918101602001919091529392505050565b600080600060608486031215611dca57600080fd5b833567ffffffffffffffff80821115611de257600080fd5b611dee87838801611d45565b9450602091508186013581811115611e0557600080fd5b8601601f81018813611e1657600080fd5b803582811115611e2857611e28611cfe565b8060051b611e37858201611d14565b918252828101850191858101908b841115611e5157600080fd5b86850192505b83831015611e8d57823586811115611e6f5760008081fd5b611e7d8d8983890101611d45565b8352509186019190860190611e57565b989b989a5050505060409690960135955050505050565b60008060408385031215611eb757600080fd5b50508035926020909101359150565b6001600160a01b0381168114611b3e57600080fd5b60008060408385031215611eee57600080fd5b823591506020830135611f0081611ec6565b809150509250929050565b815181526020808301516001600160a01b031690820152604080830151908201526060808301511515908201526080810161141c565b600080600060608486031215611f5657600080fd5b505081359360208301359350604090920135919050565b60006101008a835260208181850152611f888285018c611be6565b91508382036040850152818a518084528284019150828160051b850101838d0160005b83811015611fd957601f19878403018552611fc7838351611be6565b94860194925090850190600101611fab565b50508b60608801528a6080880152611ff460a088018b611c42565b8860c088015286810360e088015261200c8189611ca9565b9f9e505050505050505050505050505050565b634e487b7160e01b600052601160045260246000fd5b6000600182016120475761204761201f565b5060010190565b634e487b7160e01b600052603260045260246000fd5b600181811c9082168061207857607f821691505b60208210810361209857634e487b7160e01b600052602260045260246000fd5b50919050565b601f8211156120e857600081815260208120601f850160051c810160208610156120c55750805b601f850160051c820191505b818110156120e4578281556001016120d1565b5050505b505050565b815167ffffffffffffffff81111561210757612107611cfe565b61211b816121158454612064565b8461209e565b602080601f83116001811461215057600084156121385750858301515b600019600386901b1c1916600185901b1785556120e4565b600085815260208120601f198616915b8281101561217f57888601518255948401946001909101908401612160565b508582101561219d5787850151600019600388901b60f8161c191681555b5050505050600190811b01905550565b6001600160a01b039384168152919092166020820152604081019190915260600190565b6000602082840312156121e357600080fd5b81518015158114611cf757600080fd5b83815260606020820152600061220c6060830185611be6565b9050826040830152949350505050565b60006020828403121561222e57600080fd5b8151611cf781611ec6565b60008060006060848603121561224e57600080fd5b8351925060208401519150604084015190509250925092565b808202811582820484141761141c5761141c61201f565b60008261229b57634e487b7160e01b600052601260045260246000fd5b500490565b8082018082111561141c5761141c61201f565b6000602082840312156122c557600080fd5b505191905056fea2646970667358221220a8e1cb354933da632d339a319dc644e4c9bb15099f580f03168f53da2895223364736f6c63430008140033",
  "linkReferences": {},
  "deployedLinkReferences": {}
}